:10000000ECC822C713FF207F287F30FF34FF387FE2
:1000100048FF4CFF51FF55FF56FF68FF6CFF86FFFE
:1000200087FF3A204140434045405E1060406240B7
:1000300064406920724074407620784000415652F6
:100040002049535000090243000201008032090494
:100050000000010202010005240010010424020234
:100060000524060001052401030107058303080098
:100070006409040100020A000000070501020800EB
:1000800000070581020800001201010102000008BA
:10009000C016E10500020102000104030904120375
:1000A000500052004F00540054004F0053005300C2
:1000B0002C0341005600520039003100300020006E
:1000C0005500530042002000500072006F0067008E
:1000D000720061006D006D006500720075017301B2
:1000E0007301730173017301730173017301730170
:1000F0007301730173017301730173017301730160
:10010000730145017301730173017301730173017D
:10011000730173017301730173014301730173016F
:10012000730173017301730126015F0169016F019E
:1001300073015501730173017301730173014F0161
:1001400073015701730122017301610128013B0111
:10015000730133017301730173017301730173013F
:1001600073017301730173012401470165015B0190
:100170004D0153015D01730173017301730151015D
:100180006D017301730139017301730159013D015F
:100190007301370173013F013F01AB00750100009E
:1001A0003F003601841201B3006C01BB02B30F7330
:1001B00002BB00E40FBD09E00EBD05E010E01BBD71
:1001C0000ABDB99A1EB91BD21083118317831487F5
:1001D000D6D3C3C03FD2229708831983822FC6D2B9
:1001E00000E0FD0101A300A306C0E881F9810191AF
:1001F000E883F983CED3082F8A950023B1F7FD0158
:10020000078D002309F474C00781013039F4028599
:10021000013011F464D3F3CF00E007830485002399
:1002200019F4C6D3FD01038703850B510F3508F080
:100230005AC0F2E00F9FF001E452FF4F0590149076
:10024000F0010994C2D051C00DE04EC0E7D24DC0BC
:100250008DE390E0FC010491002309F446C0059170
:10026000CF0184D0F7CF05E581D002E33DC000E3A4
:10027000FBCF03E539C0E2D038C0D1D036C039D089
:10028000A1F196D3E1CF04D130C00FD12EC009E542
:100290006DD000E06BD000E827C034D226C05DD01E
:1002A000D3CF47D222C06DD220C085D21EC090D2FB
:1002B0001CC09BD21AC0F4D118C0C0D216C0EFD255
:1002C00014C010E208E29ED110C013D071F00ED11C
:1002D000BBCF0FD051F028D1B7CF7FD1B5CF09D048
:1002E00021F0BDD1B1CF0FE341D005D009F087CFC8
:1002F0006EC101E074D3FD01048501300895BD0194
:1003000045D341A127E931E050E0240F351FD80142
:100310002D933C9300A1041BDB01089537D311A159
:10032000100F11A3012F10A1011751F400E000A339
:1003300001A30781013021F40285002309F492D240
:10034000089507B30C6207BBC49A02E50DB962D2E7
:1003500011F4C29A0895C298089500E00DB907B348
:10036000037C07BB08B3037C08BB08951B2F4A2FEF
:100370000DD320A1203840F430E0D901A956BE4F5A
:100380000C9300A1039500A3A42FB12F08950FB9DA
:10039000779BFECF0FB11FB9779BFECF0FB12FB95F
:1003A000779BFECF0FB108950FB9779BFECF0FB1AA
:1003B0001FB9779BFECF0FB12FB9779BFECF0FB13F
:1003C0003FB9779BFECF0FB1089546D19DE0969A35
:1003D00020D229F4C2DFB5DF5BD11DD019C0BDDF4B
:1003E000B0DF9ED180E017D010E01FB9779BFECF21
:1003F0001FB1033569F0C59A08EC0A95F1F7C59865
:1004000008EC0A95F1F78395803268F3A6DF9FE345
:1004100013D097981BC120E013E50CEAB8CF1CD18C
:1004200080E0E4E0F0E090E0E80FF91F949104D060
:100430008E5F9923B1F70BC1092F98CF0BD19FE3A2
:1004400080E001E00AD219F1B3D202C054838E5F7A
:1004500024E030E050E0280F351FF9014491442397
:10046000A9F00417A1F7FD014583F9013196149114
:10047000FD0116839DE0403818F012E01483E7CFA9
:100480001F3711F01F3F11F711E0F8CFD5DFA0C0E3
:10049000E3D003E01BD041F06ED1902F1CD030E0B0
:1004A000202F182F092F1AD0D2C0D5D004E00ED09B
:1004B00051F061D1A02F0FD0902F7AD2302F292F59
:1004C000182F0A2F0BD0C3D0A991089588D200917C
:1004D0008101013008956CD2802F6AC265DF46DF4A
:1004E0000DE044DFD5D09698979808958A9344D12B
:1004F000802F85D001811481123031F4282F108192
:100500005CD0026044DF05C0382F2081102F00E44A
:100510004BDF182F00E225D000917901023009F459
:1005200017D09798899108958A93009179010230A4
:1005300069F022D1802F302F62D02081118108E410
:1005400033DF182F08E20DD003D0979889910895D2
:10055000E5E7F1E0008111810F5F1F4F00831183F8
:10056000089578D0229709831883A5E7B1E0FD01AB
:100570001681012F0F7001F10881101711F488D036
:100580001BC09FEF848111960C91119782301881C6
:100590001A9341F4ACD011D00160F9DE1991101713
:1005A00039F408C0A9D00A81FFDE1991101711F0A3
:1005B0009A9549F7992319F30AC0302F330F330F57
:1005C000330F0695069506950470032B0895229621
:1005D00089919991A991B99108953ED010D0048143
:1005E000002361F4808191810781013009F4019732
:1005F00030E0282F192F0CE4D7DE4AD028C0E5E7D9
:10060000F1E0089529D0912F969AF9DF8181148124
:10061000123061F030E02081182FC6DEA7DE30E016
:10062000EEDF2081182F092FBFDE0EC020E01081E1
:10063000082F000F000F000F869586958695847011
:10064000802B8160082FA3DE91DE82DF969889914E
:1006500099910895BA93AA939A938A9308958ED004
:100660008BD0302F33D013961C911497123021F079
:1006700044D000EC99DE08C015961C9115971638E9
:1006800019F430D0066083DE03D025D0979890C04F
:100690000BE712E901501040E9F700C0000008958F
:1006A0006DD0969A13D01197FD011481123021F06C
:1006B00023D000EA79DE06C01581163821F412D065
:1006C000056065DE53DE07D0969872C0A5E7B1E0FD
:1006D00011960C9108950D911C910F5F1F4F1C9363
:1006E0000E93089504D0000F000F000F089520E02E
:1006F0004D911197142F089530E04D911197242FAB
:10070000102F089586D021F420E014E086DE04C086
:1007100030E020E010E82DD003D08ED097980895D7
:100720000FE51AEE000001501040E1F700C000C0D4
:10073000089524D001E019D01C960C911C9701302B
:1007400099F01AD014961C91123031F420E0007EFA
:100750000760102F62DE05C0302F20E0096F102FD8
:1007600008D096DF69D0979823C039D1A5E7B1E0CA
:1007700008950CEA19CE969A979A1AC1BA93AA9339
:100780000895FCDF8A9301E068D089F0979A8DE0A4
:100790000FD1FD011481123011F48FE304C0302F0A
:1007A00020E010EAE6DF74DF082FE0DD97988991FA
:1007B000A991B9910895969A2DD011F40FE305C02F
:1007C00030E020E010E000E5EFDDD0DD9698089500
:1007D000969A20D011F40FE305C030E020E018E035
:1007E00008E5E2DDC3DD969808958A93969A82E043
:1007F00011D011F40FEF05C030E0282F10E000E316
:10080000D3DDB4DD082F8A95002391F7969889915E
:100810000895979A00917901023008958A9302E031
:10082000DED000918101013029F055DEE8DE008341
:10083000818302D0899108950DE098CD09D039F0D7
:1008400043D000E0028701E0078333D00BD0C0CE55
:10085000BA93AA939A938A9303E087DFFD010485F4
:100860000130089585D0063471F410D070F418E288
:1008700000E2C8DE10D0C9F700E017960C9305C05F
:100880000FDF09D0C9F302D0D8F392CF90960C9124
:1008900090970038089564D01297012B0895D8DFFF
:1008A00039F012D001E00783028700E0018701D010
:1008B0008FCE0481023039F00085063421F49695FC
:1008C000879582839383089573D0902F71D0802F62
:1008D000FD01028393836CD0FD010087089548D009
:1008E000053431F403C0BBDE3BD012972FD0D9F7CB
:1008F00032D0C9F416C0FADD17DE32D012960C9150
:100900001497002371F419960C9103950C93139787
:100910001C911697011729F460DE00E019960C93DC
:10092000199714D041F712960D911C911397012B32
:1009300061F419960C911997002319F00CD009F461
:100940004CDE00E017960C9377DF32CF5F960C9168
:100950005F970023089518960C9118970634089510
:1009600012960D911C91015010401C930E93089506
:10097000BA93AA93FBDE18960C911897089506D0A7
:1009800000E0068F058F078F0895AD01E5E7F1E0E0
:100990000895FBDF178D103148F4258D1AD00C9384
:1009A00023952F70258F078D0395078FDA01089502
:1009B000ECDF078D002351F0268D0BD00C91239591
:1009C0002F70268F178D1A95178F01C000E0DA015E
:1009D000089530E0DF01A20FB31F1D960895D6DF02
:1009E000178D101710F401E001C000E0048708958E
:1009F000F80120812076203261F40181013211F06A
:100A0000003211F40FEF0895023219F402E000935E
:100A1000360100E00895422F50E027E132E0FCD398
:100A200007E00895422F50E0980107E112E0F4D367
:100A300001E008953FEF30935301CCDB0091570163
:100A40000F3F09F45CD008953B2F4A2F02B3037F78
:100A500002BBE7E1F2E000E012EC21E0A081B0E0AF
:100A60000D931D932D930C930483058308E0068357
:100A70000BE712E901501040E9F700C00000A42F75
:100A8000B32F08952297E0DF8EDBD1D1789437D051
:100A900009C022E00FE311E063D0E6E3F1E000815A
:100AA0000A9500837FD10091530100231AF400E0DE
:100AB00000935301009157010F3F89F48E011FDC11
:100AC000802F002361F0083020F011F487E001C08E
:100AD00088E0282F0881198116D0082F1FDC00918B
:100AE00036010023F9F2009166010F3FD9F600911B
:100AF0003601023071F628E007E311E0CDCF20E0A7
:100B000000E010E000C01ED18A93A801822F0BE400
:100B1000A1E4B1E0FD0114A110FD03EC168911233D
:100B200022F414A1139514A302C01FEF168B078B98
:100B30009D01285E3F4F082F06C0FA011191AF01B9
:100B4000F90111939F01102F0A951123B1F7282F56
:100B50008D01085E1F4F3AD38C5FFD01868B24C048
:100B6000F1D08A93D801822F0BE4E6E6F1E01485F8
:100B700010FD03EC1081112322F4148513951487C2
:100B800002C01FEF10830183E8E6F1E0022F02C0EC
:100B90001D911193102F0A951123D1F708E611E04A
:100BA00015D38C5F809366018991A991B9910895BD
:100BB000C5D0A1E4B1E0FD0132A137FF20C0322F42
:100BC0008385948542A146FF11C0432F3A95442363
:100BD00089F0FC014491F80141938F010196F5CF12
:100BE000FC014191CF01F80141938F01432F3A95C8
:100BF0004423B1F7FD0183879487022F05C0222388
:100C000011F009DF01C000E0CAC098D0C801022F6E
:100C100020E010E81A93A1E4B1E0FD01138917FF69
:100C200004C0202F8C0106DF68C01D3209F073C09C
:100C3000083009F05EC0FC010081007609F05FC059
:100C40008D01075F1F4FFD012187FC013181332397
:100C500021F4FD01228722E041C0353021F43281A8
:100C6000FD0136873BC0363021F530EC38833381C7
:100C7000313021F422E108E810E030C0323021F4B4
:100C800023E405E410E02AC0333041F532813323F8
:100C900021F424E00AE910E021C0313021F422E1FE
:100CA0000EE910E01BC03230C9F42CE200EB10E07A
:100CB00015C0383029F421E08D01015F1F4F0EC0AF
:100CC000393021F43281FD01378708C03A3011F400
:100CD00021E004C03B3011F4FD0124A3FD01038792
:100CE0001487FC010781002321F40681021708F410
:100CF000202F0881FD0102A3248B219650C08C0176
:100D000077DE202F0F3FA9F7FC01008107FD268128
:100D100000E00883EECF12A117FDEBCF202F8C014E
:100D200081DE2FEF0F3F31F40EE10C9302E0FD0165
:100D3000058BEECF002361F320E0EACF03D09A9336
:100D40008A930895BA93AA930895F8DFA1E4B1E0D5
:100D5000FD012489293008F028E00489021B048B56
:100D60009BE402A100FD93EC039502A38D010F5FAC
:100D70001F4F1EDF802F093050F4202F8D010F5F91
:100D80001F4F24D2082F0C5F883030F402C09EE140
:100D900002E01FEFFD01148B9C93FD01058B8991EF
:100DA000999103CFCFDF2297A1E4B1E052962C9125
:100DB00052972223B1F02350203850F400E610E07F
:100DC0000883198351960C915197039508831DDF71
:100DD00052960C915297013024F000E052960C93F9
:100DE000529754960C9154970F3F31F055960C91B1
:100DF000559700230AF4A9DF00B30C7021F000E03E
:100E000093960C9312C093960C919397002369F4D8
:100E100004E610B31C7049F40A95D9F701E09396E3
:100E20000C93559700E00C930E932296BECEE1E40E
:100E3000F1E000E6008B0BE6018B05B7036005BF10
:100E40000BB700640BBF08950F930FB70F93839BED
:100E5000FECF839B06C0839B04C0839B02C000001F
:100E600000C01F933F932F9331E014E000B310278D
:100E700013FD32E0102F3A95C9F703FDEBC000B324
:100E8000102720E013FB20F9DF9310B3012703FBA9
:100E900021F9CF93C091510100B3102713FB22F920
:100EA0003BE0D0E04F9310B3012703FB23F94FEF52
:100EB000000055C0839BFECF839B06C0839B04C06C
:100EC000839B02C0000000C0DF9100C0CDCF10B3F3
:100ED0001C7079F14F7D206213C000B30C7049F192
:100EE0004F7B206415C00C7021F1102F206800B3D7
:100EF00019C000B30C70E9F04E7F216018C039F3BF
:100F000000B30C70B1F0102713FB26F9223028F340
:100F100010B3012703FB27F9422749934FEF00B392
:100F2000243008F3102713FB20F9297F11F310B3A5
:100F30001C70E1F1012703FB21F9237FF1F000B3DD
:100F40000C70A1F1102713FB22F9277EE1F010B3FA
:100F5000012703FB23F93A9541F12F7CD1F000B32F
:100F60000C7021F1102713FB24F92F79C1F010B375
:100F7000012703FB25F92F73C2CF10B31C70B1F00A
:100F80004D7F2260DCCF00B30C7081F04B7F24607A
:100F9000DECF10B31C7051F0477F2860E0CF00B364
:100FA0000C7021F04F7E2061E2CF3DC03C2FC091FC
:100FB00051013C1B00E433300ABFA8F108811981BC
:100FC000412F1F7720914E010D3289F1013E79F1B9
:100FD0000936C1F00777033431F510911F02112350
:100FE00011F1009153010030F1F53430FAF13093F2
:100FF00053011093540100915201C0935201009388
:10100000510134C0121779F447FD3EC030915601AA
:101010003F3F49F10FEF00935601C1E4D1E029C0F1
:10102000002700931F024F91CF91DF9113C0121739
:10103000B9F70F774078042B00931F022AF00FEFC7
:1010400000935501009356014F91CF910AB706FDC9
:1010500031CFDF9100E40ABF2F913F911F910F9193
:101060000FBF0F911895C4E7D1E002C0C3E7D1E0EC
:1010700032E05F9302B3037F086002BB5CE011B310
:101080001C6011BB20E825C00FEF1A8110FD09C0BC
:10109000309157013F3F39F300935701C8E5D1E044
:1010A000E8CF309166013F3FF1F200936601C7E659
:1010B000D1E0DFCF052710E002BB10C0052710E00C
:1010C000089402BB13C0052710E015C0052710E0E7
:1010D00019C020FF052702BB279517951C3F50F725
:1010E00020FF0527279502BB17951C3F38F720FFE7
:1010F00005272795179502BB1C3F28F720FF0527DA
:10110000279517951C3F02BB08F700C0499120FFA7
:10111000052702BB279517951C3F80F520FF052763
:10112000279502BB17951C3F68F520FF05272795DB
:10113000179502BB1C3F58F520FF052727951795EB
:101140001C3F02BB38F5242F3A9519F6037F5F91B7
:1011500002BB32E03A95F1F710914F01C657D140EA
:1011600011F010934E01086011B3137F02BB037F8F
:101170004F91CF9111BB02BBDF916CCF052710E0DF
:1011800002BBCACF052710E0089402BBCDCF0527CC
:1011900010E0CFCF052710E0D3CFE02FF12F0FEFD6
:1011A0001FEF41E050EA215070F0619138E0762F56
:1011B000702716950795669570FF02C004271527BE
:1011C0003A95A9F7F0CF009510950895E6DF0193C1
:1011D0001193089500008895FECF05E30DBF01E04F
:1011E0000EBFC6EBD0E016D0002309F031D04ADCA8
:1011F000F1DFF0CFBA93AA939A938A930895BB81B3
:10120000AA8199818881F0E00FB6F894CE0FDF1F94
:101210000FBE089501E00895EDDFD80104C0F90183
:1012200061919F016D93BA0141505040672BB9F70E
:10123000E4E0E5CF20E006D0E9F70895259102D05B
:10124000E9F708952D9301501040202F212B089588
:101250008AE991E0FC0105911491FC013296A59177
:10126000B491FC01349625913491422F432B19F00F
:10127000F901E4DF01C0DEDF069611E0863A91074E
:1012800048F3089500A120000000000200030000C0
:10129000000000000000000000000000000000004E
:1012A000000000FFFFFF0000000000000000000041
:1012B00000000000FF00000000000000000000002F
:0312C00000D25AFF
:00000001FF
:00000001FF