:0A00000025C0FECFFDCFFCCFFBCFE3
:10000A00FACFF9CFF8CFF7CFF6CFF5CFF4CFF3CFBA
:10001A00F2CFF1CFF0CFEFCFEECFEDCF1027E8033D
:10002A0064000A00010000100001100001004641AE
:10003A00555A594B4149000080C0020060014200F4
:10004A000000F894EE27ECBBF1E0FBBFEBBFE5BF85
:10005A00F8E1F1BDE1BD8DE0A2E0BB27ED938A9501
:10006A00E9F780E094E0A0E6ED930197E9F7E4E48C
:10007A00F0E085919591009761F0A591B591059071
:10008A001590BF01F00105900D920197E1F7FB0170
:10009A00F0CFEFE5EDBFE4E0EEBFC0E6D1E000C08F
:1000AA00E0E0E8BBE7BBE5BBE4BBE2BBE1BBE3BF27
:1000BA00E2BFEFBDEEBDEDBDECBDE7BDE6BDEBBDFC
:1000CA00EABDE9BDE8BDE2BDE5BDE4BDE3BDE5BF0E
:1000DA00E9BFEBB9E8E1EAB9E6E8E0BDE0E0E0BD96
:1000EA00E3E3E9B9E0E8E8B9E0E0E0BFE7B9E6E868
:1000FA00E6B9E0E0EDB9E6BFA0E16BD0E0E0EA9353
:10010A00A1E028D0A8E3B0E051D0A4EFB1E096D0A6
:10011A00F5CFFFCFAA93E2B3EF70AE2FE881E07F6D
:10012A00EA2BE2BB85E08A95F1F7939A8DE08A95EE
:10013A00F1F793988DE08A95F1F773C0AA93A88195
:10014A00E9DFE881E295E883A881E4DF85E88A951A
:10015A00F1F767C0AA93E881F0E0E05AFE4FE08128
:10016A00A981AE0FEBDF5980488022960895A2E05C
:10017A005AD0ACE0E3DFA1E056D0E0E04E2E5E2E8E
:10018A000895AA93A881AA3011F0571448F0E0E024
:10019A00EA934394A42DDEDFA881AA3009F441C072
:1001AA005394929AA881CADF92983BC0BA93AA93B1
:1001BA001A93E981FA813196E983FA833197E491B6
:1001CA001E2FE03019F0A12FDCDFF3CF1881239620
:1001DA000895AA93E1B3E06FE1BB8B9A8A9AB99A20
:1001EA0093989298C1987880E881E058E0936201E8
:1001FA00E881E054E0936301A4E1B0E01FD017D096
:10020A0016D015D0A0E286DF88EC90E00197F1F7CE
:10021A00A8E294DFA4E092DFA5E890DFA6E08EDFF3
:10022A00A6DF219608958ADFA3E0B0E007C0A0E325
:10023A0071DF88EC90E00197F1F70895109639F094
:10024A0080ED97E00197F1F7A8951197C9F70895FE
:00000001FF
