:0200000012C02C
:10000200FECFFDCFFCCFFBCFFACFF9CFF8CFF7CFA2
:10001200F6CFF5CFF4CFF3CFF2CFF1CFF0CFEFCFD2
:10002200EECFEDCFF894EE27ECBBF1E0FBBFEBBFD8
:10003200E5BFF8E1F1BDE1BD8DE0A2E0BB27ED93A4
:100042008A95E9F780E094E0A0E6ED930197E9F75D
:10005200EFE5EDBFE4E0EEBFC0E6D1E000C0E0E0D6
:10006200E8BBE7BBE5BBE4BBE2BBEFEFE1BBE0E033
:10007200E3BFE2BFEFBDEEBDEDBDECBDE7BDE6BD4A
:10008200EBBDEABDE9BDE8BDE2BDE5BDE4BDE3BD52
:10009200E5BFE9BFEAB9E0E8E8B9E0E0E0BFE6B908
:1000A200EDB9E6BF01E010E00138E0E01E0724F4FC
:1000B20013D0000F111FF8CF00E810E00230E0E08B
:1000C2001E0744F009D0D801E2E0F0E02ED00E1B6A
:1000D2001F0BF4CFE7CFFFCF02BBECE2F1E0FA93C4
:1000E200EA9300C0E991F991309639F080ED97E0FA
:1000F2000197F1F7A8953197C9F70895F195E19520
:10010200F04008950024112490E1AA0FBB1F001CA7
:10011200111C0E1A1F0A18F40E0E1F1E01C0A16038
:100122009A9599F7FD01D001089504D0EBDF0EF402
:10013200E5DF0895E894F7FF02C0E0DF6894B7FFB7
:1001420006C0A095B095119600F8039400FA0895A0
:00000001FF
