:0400000012C0FECF5D
:10000400FDCFFCCFFBCFFACFF9CFF8CFF7CFF6CFA8
:10001400F5CFF4CFF3CFF2CFF1CFF0CFEFCFEECFD8
:10002400EDCFF894EE27ECBBF1E0FBBFEBBFE5BFEF
:10003400F8E1F1BDE1BD8DE0A2E0BB27ED938A9527
:10004400E9F780E094E0A0E6ED930197E9F7EFE5A6
:10005400EDBFE4E0EEBFC0E6D1E000C0E0E0E8BB05
:10006400E1E0E7BBE0E0E5BBE4BBE2BBE1BBE3BF4F
:10007400E2BFEFBDEEBDEDBDECBDE7BDE6BDEBBD42
:10008400EABDE9BDE8BDE2BDE5BDE4BDE3BDE5BF54
:10009400E9BFEAB9E0E8E8B9E0E0E0BFE6B9EDB904
:1000A400E6BFC09A04D0C09802D0FBCFFFCFECE2E9
:1000B400F1E0FA93EA9300C0E991F991309639F0AE
:1000C40080ED97E00197F1F7A8953197C9F7089566
:00000001FF
