:0C0000001CC0FECFFDCFFCCFFBCFFACF21
:10000C00F9CFF8CFF7CFF6CFF5CFF4CFF3CFF2CFC0
:10001C00F1CFF0CFEFCFEECFEDCF4641555A594B44
:10002C004149000080C00200600130000000F894DB
:10003C00EE27ECBBF1E0FBBFEBBFE5BFF8E1F1BD98
:10004C00E1BD8DE0A2E0BB27ED938A95E9F780E056
:10005C0094E0A0E6ED930197E9F7E2E3F0E08591F7
:10006C009591009761F0A591B59105901590BF0100
:10007C00F00105900D920197E1F7FB01F0CFEFE550
:10008C00EDBFE4E0EEBFC0E6D1E000C0E0E0E8BBCD
:10009C00E7BBE5BBE4BBE2BBE1BBE3BFE2BFEFBD4B
:1000AC00EEBDEDBDECBDE7BDE6BDEBBDEABDE9BD0A
:1000BC00E8BDE2BDE5BDE4BDE3BDE5BFE9BFEAB91E
:1000CC00E0E8E8B9E0E0E0BFE6B9EDB9E6BFECE0A6
:1000DC00EA937DD048D0E0E0EA93EA9338D0E6E2A8
:1000EC00F0E09ED063D0E8EEF3E09DD0F4CFFFCFEC
:1000FC00E881E07111F0949A01C09498E881E07263
:10010C0011F0959A01C09598E881E07411F0969AD7
:10011C0001C09698E881E07811F0979A01C0979801
:10012C0085E08A95F1F7939A8DE08A95F1F793988B
:10013C008DE08A95F1F772C0E88177D0E881E2957D
:10014C00E883E88172D085E88A95F1F767C0E88189
:10015C00F0E0E05AFE4FE081A981EA0F68D05980A7
:10016C00488022960895E2E062D0E3E0F0E05BD0B4
:10017C00ECE05DD0E1E05BD0E3E0F0E054D0E0E017
:10018C004E2E5E2E0895A881AA3011F0571440F01F
:10019C00E0E0EA9343944A92DADFA881AA30F1F1C5
:1001AC005394929AE88143D0929838C01A93E9817B
:1001BC00FA813196E983FA833197E4911E2FE0306E
:1001CC0019F01A93E0DFF3CF1881239608958C9AD7
:1001DC008D9A8E9A8F9A8B9A8A9AB99A93989298AA
:1001EC00C1987880E881E058E0936201E881E0549E
:1001FC00E0936301E4E1F0E016D0E0E316D019D00F
:10020C0018D01DD0E0E211D01AD0E8E210D0E4E012
:10021C000ED0E5E80CD0E6E00AD0A5DF21960895D3
:10022C00FA93EA930895FCDF0FC0EA9361CFEA9347
:10023C0083CF88EC90E00197F1F7E0E3F6CF88EC00
:10024C0090E00197F1F70895E991F991309639F022
:10025C0080ED97E00197F1F7A8953197C9F70895CC
:00000001FF
