:0200000025C019
:10000200FECFFDCFFCCFFBCFFACFF9CFF8CFF7CFA2
:10001200F6CFF5CFF4CFF3CFF2CFF1CFF0CFEFCFD2
:10002200EECFEDCF1027E80364000A0001000010B4
:100032000001100001004641555A594B4149000048
:1000420080C00200640142000000F894EE27ECBB7D
:10005200F1E0FBBFEBBFE5BFF8E1F1BDE1BD8DE033
:10006200A2E0BB27ED938A95E9F780E094E0A0E651
:10007200ED930197E9F7E4E4F0E08591959100971B
:1000820061F0A591B59105901590BF01F001059021
:100092000D920197E1F7FB01F0CFEFE5EDBFE4E050
:1000A200EEBFC0E6D1E00CC0E881E7B98BE18A95EA
:1000B200F1F7369A349BFECF349AE4B1F5B1D7C04A
:1000C200E0E0E8BBE7BBE5BBE4BBE2BBEFEFE1BBD3
:1000D200E0E1EA93A5D071D070D0CBD0E5DF2F015B
:1000E200F20119D24FD1A0E0B0E08AEF93E478D1C7
:1000F200DF01CB01E0E0F0EC6FE774E4BFD1E09305
:100102006001F09361016093620170936301B1D069
:10011200B0D047D0E8E3F0E0AFD071D0E1E0EA93AD
:10012200A8D03FD0E0916001F0916101609162013D
:1001320070916301EED0EA9350D0E4EFF1E09FD0EA
:10014200CBCFFFCFE881E07111F0949A01C094986F
:10015200E881E07211F0959A01C09598E881E07407
:1001620011F0969A01C09698E881E07811F0979A7A
:1001720001C0979885E08A95F1F7939A8DE08A9568
:10018200F1F793988DE08A95F1F771C0E88179D003
:10019200E881E295E883E88174D085E88A95F1F7F1
:1001A20066C0E881F0E0EC59FE4FE081A981EA0FD8
:1001B2006AD07980688022960895E2E064D0E3E014
:1001C200F0E05DD0ECE05FD0E1E05DD0E3E0F0E0B4
:1001D20056D0E0E06E2E7E2E0895A881AA3011F04E
:1001E200791438F046D063946A92DBDFA881AA3092
:1001F200F1F17394929AE88146D0929838C01A939A
:10020200E981FA813196E983FA833197E4911E2FCD
:10021200E03019F01A93E1DFF3CF188123960895A5
:100222008C9A8D9A8E9A8F9A8B9A8A9AB89A939868
:100232009298C0989880E881E058E0936601E8813E
:10024200E054E0936701E4E1F0E019D0E0E319D073
:100252001CD01BD020D0E0E214D01DD0E8E213D095
:10026200E4E011D0E5E80FD0E6E00DD0A6DF21965C
:100272000895E0E0EA930895FA93EA930895FCDF83
:100282000FC0EA935FCFEA9381CF88EC90E00197A9
:10029200F1F7E0E3F6CF88EC90E00197F1F70895EB
:1002A200E991F991309639F080ED97E00197F1F7F5
:1002B200A8953197C9F70895552342F4503811F49F
:1002C200E0FF04C03196691F791F6BF050E8572791
:1002D20011F45F9373C05F3F31F0660F000C5795C6
:1002E2006795752F08955F9300200AF073C06CC064
:1002F20050E8192E1522880F991F9527550F8795BB
:1003020050E8072E0522660F771F7527550F679550
:100312000895689401C0E8945F93F2DF703818F092
:100322007F3F08F44BC056E1571BAAF45195583051
:100332000EF4593030F0EFEFFFEF6FEF7FE777F910
:100342001AC077275523B9F0EE0FFF1F661F771FDC
:100352005A95D1F710C07727583028F0EF2FF62F93
:10036200672F5850F9CF552331F076956795F79559
:10037200E7955A95D1F700200AF4C5D05F91089508
:10038200689401C0E894309760407040B1F0002456
:1003920026F0772312F40094B6D0172E7EE11120B6
:1003A20032F07A95EE0FFF1F661F111CF9CFEF2F67
:1003B200F62F612D5F938ADF5F910895EE27FF2765
:1003C200662777275F910895EFEFFFEF6FE77FEFE3
:1003D2005F910895EFEFFFEF6FE77FE75F91089579
:1003E2005F9386DF703851F3903841F3012408940B
:1003F200791F23F41CF300203AF3ECCF0F921F93E2
:100402002F933F934F93112722279927689FA0018B
:100412008F9F302D410D591F6B9F300D411D591F6C
:100422008E9F27D0BF9F25D06A9F23D0BE9F1DD00D
:10043200AF9F1BD0AE9F110D291F391F491F591F96
:10044200E32FF42F652F522F4F913F912F911F9140
:100452000F9066232AF0550FEE1FFF1F661F02C082
:1004620073954BF229DF5F910895100D211D391FFD
:1004720002C0200D311D491F591F08955F9338DFB7
:10048200703821F411200AF49FCFA4CF903809F4D8
:1004920095CF01240894970B1BF4D4F30020F3CFDB
:1004A200792F1F932F933F934F93112411272227C4
:1004B20033274427552790E2AE17BF078607410727
:1004C20030F0AE1BBF0B860B410B089401C0889421
:1004D200551F221F331F111CAA1FBB1F881F441F39
:1004E2009A9551F7F901612D4F913F912F911F91EB
:1004F200662332F0550FEE1FFF1F661F7A9543F2F7
:10050200DBDE5F910895F09560957095E195FF4F60
:100512006F4F7F4F08956F2F660F660B762F0895EA
:00000001FF
